:100000000C945D000C9485000C9485000C94850084
:100010000C9485000C9485000C9485000C9485004C
:100020000C9485000C9485000C9485000C9485003C
:100030000C9485000C9485000C9485000C9485002C
:100040000C941C020C9485000C948C020C94660297
:100050000C9485000C9485000C9485000C9485000C
:100060000C9485000C94850000000008000201003B
:100070000003040700000000000000000000000072
:10008000250028002B0000000000240027002A0083
:10009000040404040404040402020202020203032E
:1000A0000303030301020408102040800102040836
:1000B0001020010204081020A60311241FBECFEF58
:1000C000D8E0DEBFCDBF11E0A0E0B1E0E6EBF7E0A5
:1000D00002C005900D92AC3DB107D9F722E0ACED1E
:1000E000B1E001C01D92A238B207E1F710E0CDE502
:1000F000D0E004C02197FE010E94D303CC35D10784
:10010000C9F70E94BE020C94D9030C94000090E041
:10011000FC01EC55FF4F249180579F4FFC018491C7
:10012000882399F090E0880F991FFC01EA57FF4F50
:10013000A591B491FC01E458FF4F859194918FB73C
:10014000F894EC91E22BEC938FBF089590E0FC01C2
:10015000E859FF4F2491FC01EC55FF4F3491FC010D
:10016000E057FF4FE491EE23C9F0222339F023300A
:1001700001F1A8F4213019F1223029F1F0E0EE0F5D
:10018000FF1FE458FF4FA591B4918FB7F894EC91FD
:10019000611126C030953E233C938FBF08952730D0
:1001A000A9F02830C9F0243049F7809180008F7D74
:1001B00003C0809180008F7780938000DFCF84B56B
:1001C0008F7784BDDBCF84B58F7DFBCF8091B0006E
:1001D0008F778093B000D2CF8091B0008F7DF9CF20
:1001E0003E2BDACFAF92BF92CF92DF92EF92FF9287
:1001F0000F931F93CF93DF936C017B018B01040F4F
:10020000151FEB015E01AE18BF08C017D10759F0EA
:100210006991D601ED91FC910190F081E02DC6012C
:100220000995892B79F7C501DF91CF911F910F9126
:10023000FF90EF90DF90CF90BF90AF900895FC01BA
:10024000538D448D252F30E0842F90E0821B930B3B
:10025000541710F0CF96089501970895FC01918DE1
:10026000828D981761F0A28DAE0FBF2FB11D5D96E4
:100270008C91928D9F5F9F73928F90E008958FEF86
:100280009FEF0895FC01918D828D981731F0828D3A
:10029000E80FF11D858D90E008958FEF9FEF089591
:1002A000FC01918D228D892F90E0805C9F4F821BF5
:1002B00091098F739927089585EE91E00E9450016E
:1002C00021E0892B09F420E0822F089580E090E05E
:1002D000892B29F00E945C0181110C940000089583
:1002E000FC01A48DA80FB92FB11DA35ABF4F2C91AB
:1002F000848D90E001968F739927848FA689B789A2
:100300002C93A089B1898C91837080648C93938D98
:10031000848D981306C00288F389E02D80818F7D3B
:1003200080830895EF92FF920F931F93CF93DF93F3
:10033000EC0181E0888F9B8D8C8D98131AC0E88921
:10034000F989808185FF15C09FB7F894EE89FF89F0
:100350006083E889F98980818370806480839FBF8E
:1003600081E090E0DF91CF911F910F91FF90EF908E
:100370000895F62E0B8D10E00F5F1F4F0F7311279E
:10038000E02E8C8D8E110CC00FB607FCFACFE889D9
:10039000F989808185FFF5CFCE010E947001F1CFF0
:1003A000EB8DEC0FFD2FF11DE35AFF4FF0829FB74D
:1003B000F8940B8FEA89FB8980818062CFCFCF933D
:1003C000DF93EC01888D8823B9F0AA89BB89E8897D
:1003D000F9898C9185FD03C0808186FD0DC00FB623
:1003E00007FCF7CF8C9185FFF2CF808185FFEDCFA1
:1003F000CE010E947001E9CFDF91CF910895CF9394
:10040000DF93FC0101900020E9F73197AF01481B11
:10041000590BBC0185EE91E00E94F200EC0142E034
:1004200050E062E171E085EE91E00E94F2008C0FF5
:100430009D1FDF91CF9108951F920F920FB60F92DB
:1004400011242F933F938F939F93AF93BF938091EA
:10045000E1019091E201A091E301B091E4013091BA
:10046000E00123E0230F2D3758F50196A11DB11DA2
:100470002093E0018093E1019093E201A093E301D6
:10048000B093E4018091DC019091DD01A091DE0147
:10049000B091DF010196A11DB11D8093DC01909305
:1004A000DD01A093DE01B093DF01BF91AF919F9179
:1004B0008F913F912F910F900FBE0F901F90189525
:1004C00026E8230F0296A11DB11DD2CF1F920F92D5
:1004D0000FB60F9211242F933F934F935F936F9317
:1004E0007F938F939F93AF93BF93EF93FF9385EE8B
:1004F00091E00E947001FF91EF91BF91AF919F91A8
:100500008F917F916F915F914F913F912F910F90BC
:100510000FBE0F901F9018951F920F920FB60F925B
:1005200011242F938F939F93EF93FF93E091F50105
:10053000F091F6018081E091FB01F091FC0182FDD8
:100540001BC090818091FE018F5F8F732091FF010E
:10055000821741F0E091FE01F0E0EB51FE4F958FE4
:100560008093FE01FF91EF919F918F912F910F90BA
:100570000FBE0F901F9018958081F4CF789484B5AA
:10058000826084BD84B5816084BD85B5826085BD8F
:1005900085B5816085BD80916E00816080936E001D
:1005A000109281008091810082608093810080910F
:1005B00081008160809381008091800081608093C0
:1005C00080008091B10084608093B1008091B00080
:1005D00081608093B00080917A00846080937A007B
:1005E00080917A00826080937A0080917A008160A5
:1005F00080937A0080917A00806880937A001092CC
:10060000C100E091F501F091F60182E08083E09174
:10061000F101F091F2011082E091F301F091F40107
:100620008FEC80831092FD01E091F901F091FA01C5
:1006300086E08083E091F701F091F801808180618C
:100640008083E091F701F091F801808188608083D8
:10065000E091F701F091F801808180688083E0915A
:10066000F701F091F80180818F7D808387E00E94FF
:10067000870088E00E94870060E087E00E94A60073
:1006800060E088E00E94A60085E191E00E94FF0101
:10069000C0E0D0E085EE91E00E94500118161906E6
:1006A00064F585EE91E00E942E018A3031F18D30A3
:1006B00021F1803211F1823381F13CF48033D9F1A0
:1006C000813399F08BEB91E016C0843369F1F4F03B
:1006D0008933C1F761E087E00E94A60061E088E00D
:1006E0000E94A6008CE891E006C061E087E00E94CD
:1006F000A60080E491E00E94FF01209759F20E9439
:100700005C01882339F20E940000C4CF60E087E0DA
:100710000E94A60083E591E0EECF61E088E00E94B0
:10072000A60087E691E0E7CF60E088E00E94A6009F
:1007300089E791E0E0CF60E087E00E94A60060E0FA
:1007400088E00E94A60083EA91E0D5CFE5EEF1E0D3
:100750001382128288EE93E0A0E0B0E08483958358
:10076000A683B78384E091E09183808385EC90E059
:100770009587848784EC90E09787868780EC90E06B
:10078000918B808B81EC90E0938B828B82EC90E05C
:10079000958B848B86EC90E0978B868B118E128ED6
:1007A000138E148E0895EE0FFF1F0590F491E02D27
:0607B0000994F894FFCF4C
:1007B600000000009201F2001F01DF0150012E012E
:1007C60042010D0A002D2D2D2053595354454D201D
:1007D60052454144593A204D554C54492D444556AD
:1007E60049434520434F4E54524F4C202D2D2D004A
:1007F6005354415455533A2042554C4220495320B4
:100806004F4E005354415455533A2042554C4220C2
:100816004953204F4646005354415455533A2046B7
:10082600414E204953204F4E005354415455533A9C
:100836002046414E204953204F46460053544154CA
:1008460055533A20414C4C20444556494345532084
:100856004F4E005354415455533A20414C4C20447A
:10086600455649434553204F464600535953544530
:100876004D3A20496E76616C696420436F6D6D61F7
:0C0886006E64205265636569766564004D
:00000001FF
