:100000000C945E000C9486000C9486000C94860080
:100010000C9486000C9486000C9486000C94860048
:100020000C9486000C9486000C9486000C94860038
:100030000C9486000C9486000C9486000C94860028
:100040000C94A0020C9486000C9410030C94EA0209
:100050000C9486000C9486000C9486000C94860008
:100060000C9486000C948600000000080002010039
:100070000003040700000000000000000000000072
:10008000250028002B0000000000240027002A0083
:10009000040404040404040402020202020203032E
:1000A0000303030301020408102040800102040836
:1000B000102001020408102042033E0611241FBE36
:1000C000CFEFD8E0DEBFCDBF23E0AEE1B3E001C0AB
:1000D0001D92A33DB207E1F713E0A0E0B1E0EAE62C
:1000E000F1E102C005900D92AE31B107D9F710E0F1
:1000F000CDE5D0E004C02197FE010E94A706CC35D3
:10010000D107C9F70E94BA030C94A8080C94000008
:1001100090E0FC01EC55FF4F249180579F4FFC016C
:100120008491882399F090E0880F991FFC01EA5789
:10013000FF4FA591B491FC01E458FF4F8591949134
:100140008FB7F894EC91E22BEC938FBF089590E079
:10015000FC01E859FF4F2491FC01EC55FF4F34910D
:10016000FC01E057FF4FE491EE23C9F0222339F060
:10017000233001F1A8F4213019F1223029F1F0E007
:10018000EE0FFF1FE458FF4FA591B4918FB7F8947D
:10019000EC91611126C030953E233C938FBF0895AA
:1001A0002730A9F02830C9F0243049F78091800029
:1001B0008F7D03C0809180008F7780938000DFCF98
:1001C00084B58F7784BDDBCF84B58F7DFBCF8091E5
:1001D000B0008F778093B000D2CF8091B0008F7D38
:1001E000F9CF3E2BDACFAF92BF92CF92DF92EF9250
:1001F000FF920F931F93CF93DF936C017B018B01D1
:10020000040F151FEB015E01AE18BF08C017D10720
:1002100059F06991D601ED91FC910190F081E02DAA
:10022000C6010995892B79F7C501DF91CF911F91FF
:100230000F91FF90EF90DF90CF90BF90AF90089517
:10024000FC01538D448D252F30E0842F90E0821BDC
:10025000930B541710F0CF96089501970895FC0161
:10026000918D828D981761F0A28DAE0FBF2FB11DB9
:100270005D968C91928D9F5F9F73928F90E0089511
:100280008FEF9FEF08952FB7F894809128039091F6
:100290002903A0912A03B0912B032FBF809334032D
:1002A00090933503A0933603B09337038CE293E029
:1002B0000E942F0197FF26C02FB7F8948091280342
:1002C00090912903A0912A03B0912B032FBF409155
:1002D0003403509135036091360370913703841BCA
:1002E000950BA60BB70B40913003509131036091F1
:1002F00032037091330384179507A607B707B0F24E
:100300008FEF9FEF0895FC01918D828D981731F04A
:10031000828DE80FF11D858D90E008958FEF9FEF9E
:100320000895FC01918D228D892F90E0805C9F4F74
:10033000821B91098F73992708958CE293E00E94A4
:10034000910121E0892B09F420E0822F089580E0BB
:1003500090E0892B29F00E949D0181110C940000EE
:100360000895FC01A48DA80FB92FB11DA35ABF4F4A
:100370002C91848D90E001968F739927848FA689A4
:10038000B7892C93A089B1898C91837080648C93F8
:10039000938D848D981306C00288F389E02D8081A7
:1003A0008F7D80830895EF92FF920F931F93CF93D9
:1003B000DF93EC0181E0888F9B8D8C8D98131AC0A0
:1003C000E889F989808185FF15C09FB7F894EE8987
:1003D000FF896083E889F9898081837080648083E4
:1003E0009FBF81E090E0DF91CF911F910F91FF902F
:1003F000EF900895F62E0B8D10E00F5F1F4F0F73D7
:100400001127E02E8C8D8E110CC00FB607FCFACF91
:10041000E889F989808185FFF5CFCE010E94B1017D
:10042000F1CFEB8DEC0FFD2FF11DE35AFF4FF08262
:100430009FB7F8940B8FEA89FB8980818062CFCFC8
:10044000CF93DF93EC01888D8823B9F0AA89BB890B
:10045000E889F9898C9185FD03C0808186FD0DC0F6
:100460000FB607FCF7CF8C9185FFF2CF808185FF17
:10047000EDCFCE010E94B101E9CFDF91CF91089578
:10048000FC0101900020E9F73197AF01481B590B9F
:10049000BC018CE293E00C94F300CF93DF930E94B5
:1004A0004002EC0188E191E00E9440028C0F9D1F08
:1004B000DF91CF910895FC0180819181009711F027
:1004C0000C9449070895FC0124813581232B39F4CC
:1004D00021E0FB018081882349F020E007C0808172
:1004E00091810E94980821E0892BB9F7822F089505
:1004F0000F931F93CF93DF93EC018881998100972D
:1005000059F02A813B812617370730F081E0DF91CF
:10051000CF911F910F9108958B016F5F7F4F0E94C4
:10052000D207009759F0998388831B830A832C8113
:100530003D81232B59F7FC011082E8CF80E0E7CF03
:100540001F920F920FB60F9211242F933F938F9308
:100550009F93AF93BF938091280390912903A0911B
:100560002A03B0912B033091270323E0230F2D376B
:1005700058F50196A11DB11D2093270380932803F0
:1005800090932903A0932A03B0932B038091230314
:1005900090912403A0912503B09126030196A11DFB
:1005A000B11D8093230390932403A0932503B0935C
:1005B0002603BF91AF919F918F913F912F910F9003
:1005C0000FBE0F901F90189526E8230F0296A11DCD
:1005D000B11DD2CF1F920F920FB60F9211242F93FD
:1005E0003F934F935F936F937F938F939F93AF93BB
:1005F000BF93EF93FF938CE293E00E94B101FF91D0
:10060000EF91BF91AF919F918F917F916F915F918A
:100610004F913F912F910F900FBE0F901F90189503
:100620001F920F920FB60F9211242F938F939F93C7
:10063000EF93FF93E0913C03F0913D038081E091C3
:100640004203F091430382FD1BC0908180914503DA
:100650008F5F8F7320914603821741F0E09145032D
:10066000F0E0E45DFC4F958F80934503FF91EF919F
:100670009F918F912F910F900FBE0F901F90189503
:100680008081F4CF10922F0310922E0388EE93E016
:10069000A0E0B0E08093300390933103A093320345
:1006A000B09333038AE091E090932D0380932C0361
:1006B00085EC90E0909339038093380384EC90E0CC
:1006C00090933B0380933A0380EC90E090933D033A
:1006D00080933C0381EC90E090933F0380933E0332
:1006E00082EC90E0909341038093400386EC90E08D
:1006F0009093430380934203109245031092460364
:1007000010924703109248031092CA031092C90333
:100710001092CC031092CB031092CE031092CD0313
:1007200064E070E089EC93E00E9478022091C903B4
:100730003091CA03811113C02115310519F0C90187
:100740000E9449071092CA031092C9031092CE0367
:100750001092CD031092CC031092CB03089584E045
:1007600090E09093CE038093CD036BE171E0C901DB
:100770000C94A108CF93DF93CDB7DEB7A7970FB640
:10078000F894DEBF0FBECDBF789484B5826084BD7F
:1007900084B5816084BD85B5826085BD85B5816085
:1007A00085BD80916E00816080936E001092810003
:1007B00080918100826080938100809181008160BE
:1007C000809381008091800081608093800080917F
:1007D000B10084608093B1008091B000816080930B
:1007E000B00080917A00846080937A0080917A00D2
:1007F000826080937A0080917A00816080937A0091
:1008000080917A00806880937A001092C100E09114
:100810003C03F0913D0382E08083E0913803F09146
:1008200039031082E0913A03F0913B038FEC80830F
:1008300010924403E0914003F091410386E08083ED
:10084000E0913E03F0913F03808180618083E091DD
:100850003E03F0913F03808188608083E0913E03F6
:10086000F0913F03808180688083E0913E03F091A6
:100870003F0380818F7D808387E00E94880088E02D
:100880000E94880080E291E00E944D028AE0482E9A
:10089000512C612C712C90E0892E90E0992E8CE2E5
:1008A00093E00E949101181619060CF0DBC11BA2FF
:1008B0001AA21DA21CA21FA21EA270E060E0CE011F
:1008C00082960E9478022AA13BA181112EC0211597
:1008D000310519F0C9010E9449071BA21AA21FA2E3
:1008E0001EA21DA21CA20E94430197FD26C08A30B1
:1008F000910519F189831A820EA11FA10F5F1F4F65
:10090000B801CE0182960E947802882361F32AA161
:100910003BA18EA19FA1BE016F5F7F4F820F931FEE
:100920000E94A1081FA30EA3DECF1FA21EA26AE190
:1009300071E0C9010E94A108D6CFCAA0DBA0C114F2
:10094000D10431F00EA11FA176010115110511F599
:100950008091220381115AC02EA13FA18091CD0325
:100960009091CE032817390709F04DC08AA19BA1A9
:100970006091C9037091CA03009709F45AC16115C7
:100980007105F1F5232B09F462C1FC01808190E02F
:100990005BC1750157018FEFA81AB80AF701808172
:1009A000082E000C990B0E944206892B91F70150EA
:1009B00011090C0D1D1DF8018081082E000C990BEA
:1009C0000E944206892B31F00E151F0518F00150C8
:1009D0001109F1CFA8014F5F5F4F4E195F095FA367
:1009E0004EA3CE14DF0420F4B701C6010E948F0885
:1009F000EAA1FBA18EA19FA1E80FF91F1082A8CF49
:100A00000E94980821C181E791E026C16EE871E05B
:100A1000CE0182960E946302882309F455C000919A
:100A20002003109121038DEB91E0093EF3E01F07B5
:100A30009CF461E087E00E94A70080911F03811170
:100A400006C00C501E4F109321030093200381E039
:100A500080931F0383E991E00E944D0287E093E0B9
:100A60000E944002C0902003D09021030D2C000C66
:100A7000EE08FF08F7FEC7C06DE28CE293E00E942B
:100A8000D30122273327A9012C193D094E095F09FB
:100A900019A28E010F5D1F4FCA01B901A301920176
:100AA0000E948506605DF80162938F012115310572
:100AB0004105510589F70115110519F0C8010E947A
:100AC000400284E193E0C8C06BEE71E0CE018296F3
:100AD0000E9463028823D9F1009120031091210321
:100AE0000D3281E01807A4F080911F03882381F064
:100AF00060E087E00E94A70010921F03045F11408E
:100B0000109321030093200380EF91E00E944D0297
:100B1000009120031091210381E592E00D32E1E084
:100B20001E070CF099CF61E088E00E94A700809139
:100B30001E03811106C000551B4F10932103009323
:100B4000200381E080931E038AE292E085CF6CE867
:100B500072E0CE0182960E9463028823B9F060E0C1
:100B600088E00E94A70080911E03882351F08091A5
:100B7000200390912103805B944090932103809304
:100B8000200310921E0382E992E066CF66EB72E0CA
:100B9000CE0182960E9463028823B9F060E087E06C
:100BA0000E94A70080911F03882351F080912003A9
:100BB00090912103845F91409093210380932003BF
:100BC00010921F038CEB92E047CF64EE72E0CE01EF
:100BD00082960E946302882309F440CF60E087E098
:100BE0000E94A70060E088E00E94A7001092210305
:100BF0001092200310921F0310921E0310922203E2
:100C000086EE92E029CFA701960119A28E010F5D11
:100C10001F4FCA01B901A30192010E948506605DC0
:100C2000F80162938F01211531054105510589F7BE
:100C300042CF6115710559F0232B49F0FB018081EA
:100C400090E0919581959109892B09F0DCCE81E0A6
:100C50008093220384E491E00E944D02CE018296AB
:100C60000E945B028114910409F419CE0E949D0137
:100C7000882309F414CE0E94000011CE89EC93E081
:100C80000C945B0291110C944B06803219F0895040
:100C90008550C8F708959927882708952F923F9285
:100CA0004F925F926F927F928F929F92AF92BF927C
:100CB000CF92DF92EF92FF920F931F93CF93DF9328
:100CC000CDB7DEB7CA1BDB0B0FB6F894DEBF0FBE85
:100CD000CDBF09942A88398848885F846E847D84D2
:100CE0008C849B84AA84B984C884DF80EE80FD80D4
:100CF0000C811B81AA81B981CE0FD11D0FB6F8944A
:100D0000DEBF0FBECDBFED010895A1E21A2EAA1BD2
:100D1000BB1BFD010DC0AA1FBB1FEE1FFF1FA217AB
:100D2000B307E407F50720F0A21BB30BE40BF50BA8
:100D3000661F771F881F991F1A9469F76095709531
:100D4000809590959B01AC01BD01CF010895EE0FF8
:100D5000FF1F0590F491E02D09940F931F93CF93FB
:100D6000DF938230910510F482E090E0E091D103AE
:100D7000F091D20330E020E0B0E0A0E0309799F4A9
:100D80002115310509F44AC0281B390B24303105DF
:100D9000D8F58A819B816115710589F1FB019383E7
:100DA0008283FE0111C04081518102811381481765
:100DB0005907E0F04817590799F4109761F0129617
:100DC0000C93129713961C933296CF01DF91CF911B
:100DD0001F910F9108950093D1031093D203F4CF84
:100DE0002115310551F04217530738F0A901DB01F5
:100DF0009A01BD01DF01F801C1CFEF01F9CF909356
:100E0000D2038093D103CDCFFE01E20FF31F819374
:100E100091932250310939832883D7CF2091CF0372
:100E20003091D003232B41F4209102013091030132
:100E30003093D0032093CF03209100013091010122
:100E40002115310541F42DB73EB740910401509171
:100E50000501241B350BE091CF03F091D003E2177D
:100E6000F307A0F42E1B3F0B2817390778F0AC01CD
:100E70004E5F5F4F2417350748F04E0F5F1F5093AA
:100E8000D0034093CF03819391939FCFF0E0E0E0B4
:100E90009CCFCF93DF930097E9F0FC013297138248
:100EA0001282A091D103B091D203ED0130E020E095
:100EB0001097A1F420813181820F931F2091CF03DD
:100EC0003091D0032817390709F061C0F093D0039F
:100ED000E093CF03DF91CF910895EA01CE17DF07AA
:100EE000E8F54A815B819E0141155105B1F7E901A1
:100EF000FB83EA8349915991C40FD51FEC17FD0775
:100F000061F4808191810296840F951FE901998394
:100F10008883828193819B838A83F0E0E0E012964C
:100F20008D919C9113970097B9F52D913C91119754
:100F3000CD010296820F931F2091CF033091D003F1
:100F40002817390739F6309751F51092D2031092CD
:100F5000D103B093D003A093CF03BCCFD383C2837C
:100F600040815181840F951FC817D90761F44E5FE6
:100F70005F4F88819981480F591F518340838A812F
:100F80009B81938382832115310509F0B0CFF093C3
:100F9000D203E093D1039ECFFD01DC01C0CF1382C9
:100FA0001282D7CFB0E0A0E0E8EDF7E00C94500655
:100FB0008C01009751F4CB010E94AD068C01C80151
:100FC000CDB7DEB7E0E10C946C06FC01E60FF71F2D
:100FD0009C0122503109E217F30708F49DC0D901A2
:100FE000CD91DC911197C617D70798F0C530D10580
:100FF00030F3CE0104978617970708F3C61BD70B6B
:101000002297C193D1936D937C93CF010E9449079E
:10101000D6CF5B01AC1ABD0A4C018C0E9D1EA0916F
:10102000D103B091D203512C412CF12CE12C10971B
:1010300031F58091CF039091D0038815990509F07F
:101040005CC04616570608F058C080910001909188
:101050000101009741F48DB79EB740910401509172
:101060000501841B950BE817F90708F055C0F093AC
:10107000D003E093CF03F90171836083A0CF8D91FA
:101080009C91119712966C90129713967C901397DF
:10109000A815B90559F56C0142E0C40ED11CCA145B
:1010A000DB0420F1AC014A195B09DA0112961597AD
:1010B00080F06282738251834083D9016D937C9367
:1010C000E114F10471F0D7011396FC93EE9312979B
:1010D00076CF22968C0F9D1FF90191838083F301B7
:1010E000EFCFF093D203E093D10369CF48165906AE
:1010F00008F42C017D01D3019ACFCB010E94AD06EB
:101100007C01009749F0AE01B8010E948F08C80128
:101110000E944907870153CF10E000E050CFFB0148
:10112000DC0102C001900D9241505040D8F7089563
:10113000FB01DC018D91019080190110D9F3990B0D
:101140000895FB01DC0101900D920020E1F7089564
:1011500010E0CDE5D0E004C0FE010E94A706219674
:0A116000CE35D107C9F7F894FFCF90
:10116A000000D303800000000000D301F300200137
:10117A00200291012F0183010D0A004F50454E00B4
:10118A002D2D2D2053595354454D20454E43525928
:10119A00505445443A20454E544552204B45592017
:1011AA002D2D2D00414343455353204752414E5460
:1011BA0045442E204D6963726F67726964204C6FD3
:1011CA0067696320496E697469616C697A65642E1E
:1011DA0000534543555249545920414C4552543ABB
:1011EA0020496E76616C6964204B65792E004C5FEC
:1011FA004F4E005354415455533A204E6F6E2D456D
:10120A007373656E7469616C204C6F61642041630D
:10121A007469766520282B35303057290052454AA3
:10122A0045435445443A20506F77657220427564AD
:10123A006765742046756C6C2E2043616E6E6F7400
:10124A0020616464206C6F61642E00485F4F4E0019
:10125A005052452D454D5054494F4E3A2044726FD5
:10126A007070696E67204E6F6E2D457373656E746C
:10127A0069616C204C6F616420746F2070726F74A6
:10128A00656374206772696421005354415455534D
:10129A003A20457373656E7469616C204C6F6164A2
:1012AA002041637469766520282B31323030572902
:1012BA0000435249544943414C204641494C5552F6
:1012CA00453A204576656E20457373656E7469618B
:1012DA006C204C6F61642065786365656473205087
:1012EA006F776572204C696D69742100485F4F46BB
:1012FA0046005354415455533A20457373656E74EE
:10130A0069616C204C6F616420446561637469761D
:10131A00617465642E004C5F4F4646005354415435
:10132A0055533A204E6F6E2D457373656E7469611D
:10133A006C204C6F616420446561637469766174E2
:10134A0065642E00300053595354454D2053485577
:10135A0054444F574E3A204C6F6769632052656C6C
:10136A006F636B65642E00475249442055534147C9
:0E137A00453A200057202F20313530305700E3
:00000001FF
